{
    "contractName": "Election",
    "abi": [
        {
            "constant": false,
            "inputs": [
                {
                    "name": "candidateId",
                    "type": "uint256"
                }
            ],
            "name": "vote",
            "outputs": [],
            "payable": false,
            "stateMutability": "nonpayable",
            "type": "function"
        },
        {
            "constant": true,
            "inputs": [],
            "name": "getTotalVoter",
            "outputs": [
                {
                    "name": "",
                    "type": "uint256"
                }
            ],
            "payable": false,
            "stateMutability": "view",
            "type": "function"
        },
        {
            "constant": true,
            "inputs": [],
            "name": "getAdminName",
            "outputs": [
                {
                    "name": "",
                    "type": "string"
                }
            ],
            "payable": false,
            "stateMutability": "view",
            "type": "function"
        },
        {
            "constant": false,
            "inputs": [
                {
                    "name": "_adminName",
                    "type": "string"
                },
                {
                    "name": "_adminEmail",
                    "type": "string"
                },
                {
                    "name": "_adminTitle",
                    "type": "string"
                },
                {
                    "name": "_electionTitle",
                    "type": "string"
                },
                {
                    "name": "_organizationTitle",
                    "type": "string"
                }
            ],
            "name": "setElectionDetails",
            "outputs": [],
            "payable": false,
            "stateMutability": "nonpayable",
            "type": "function"
        },
        {
            "constant": false,
            "inputs": [
                {
                    "name": "_header",
                    "type": "string"
                },
                {
                    "name": "_party",
                    "type": "string"
                }
            ],
            "name": "addCandidate",
            "outputs": [],
            "payable": false,
            "stateMutability": "nonpayable",
            "type": "function"
        },
        {
            "constant": true,
            "inputs": [],
            "name": "getOrganizationTitle",
            "outputs": [
                {
                    "name": "",
                    "type": "string"
                }
            ],
            "payable": false,
            "stateMutability": "view",
            "type": "function"
        },
        {
            "constant": false,
            "inputs": [
                {
                    "name": "_verifedStatus",
                    "type": "bool"
                },
                {
                    "name": "voterAddress",
                    "type": "address"
                }
            ],
            "name": "verifyVoter",
            "outputs": [],
            "payable": false,
            "stateMutability": "nonpayable",
            "type": "function"
        },
        {
            "constant": true,
            "inputs": [
                {
                    "name": "",
                    "type": "address"
                }
            ],
            "name": "voterDetails",
            "outputs": [
                {
                    "name": "voterAddress",
                    "type": "address"
                },
                {
                    "name": "name",
                    "type": "string"
                },
                {
                    "name": "phone",
                    "type": "string"
                },
                {
                    "name": "isVerified",
                    "type": "bool"
                },
                {
                    "name": "hasVoted",
                    "type": "bool"
                },
                {
                    "name": "isRegistered",
                    "type": "bool"
                }
            ],
            "payable": false,
            "stateMutability": "view",
            "type": "function"
        },
        {
            "constant": false,
            "inputs": [],
            "name": "endElection",
            "outputs": [],
            "payable": false,
            "stateMutability": "nonpayable",
            "type": "function"
        },
        {
            "constant": true,
            "inputs": [
                {
                    "name": "",
                    "type": "uint256"
                }
            ],
            "name": "candidateDetails",
            "outputs": [
                {
                    "name": "candidateId",
                    "type": "uint256"
                },
                {
                    "name": "header",
                    "type": "string"
                },
                {
                    "name": "party",
                    "type": "string"
                },
                {
                    "name": "voteCount",
                    "type": "uint256"
                }
            ],
            "payable": false,
            "stateMutability": "view",
            "type": "function"
        },
        {
            "constant": true,
            "inputs": [],
            "name": "getTotalCandidate",
            "outputs": [
                {
                    "name": "",
                    "type": "uint256"
                }
            ],
            "payable": false,
            "stateMutability": "view",
            "type": "function"
        },
        {
            "constant": true,
            "inputs": [],
            "name": "getAdmin",
            "outputs": [
                {
                    "name": "",
                    "type": "address"
                }
            ],
            "payable": false,
            "stateMutability": "view",
            "type": "function"
        },
        {
            "constant": true,
            "inputs": [],
            "name": "getAdminEmail",
            "outputs": [
                {
                    "name": "",
                    "type": "string"
                }
            ],
            "payable": false,
            "stateMutability": "view",
            "type": "function"
        },
        {
            "constant": true,
            "inputs": [],
            "name": "getEnd",
            "outputs": [
                {
                    "name": "",
                    "type": "bool"
                }
            ],
            "payable": false,
            "stateMutability": "view",
            "type": "function"
        },
        {
            "constant": true,
            "inputs": [],
            "name": "getAdminTitle",
            "outputs": [
                {
                    "name": "",
                    "type": "string"
                }
            ],
            "payable": false,
            "stateMutability": "view",
            "type": "function"
        },
        {
            "constant": true,
            "inputs": [],
            "name": "getStart",
            "outputs": [
                {
                    "name": "",
                    "type": "bool"
                }
            ],
            "payable": false,
            "stateMutability": "view",
            "type": "function"
        },
        {
            "constant": true,
            "inputs": [
                {
                    "name": "",
                    "type": "uint256"
                }
            ],
            "name": "voters",
            "outputs": [
                {
                    "name": "",
                    "type": "address"
                }
            ],
            "payable": false,
            "stateMutability": "view",
            "type": "function"
        },
        {
            "constant": true,
            "inputs": [],
            "name": "getElectionTitle",
            "outputs": [
                {
                    "name": "",
                    "type": "string"
                }
            ],
            "payable": false,
            "stateMutability": "view",
            "type": "function"
        },
        {
            "constant": true,
            "inputs": [],
            "name": "admin",
            "outputs": [
                {
                    "name": "",
                    "type": "address"
                }
            ],
            "payable": false,
            "stateMutability": "view",
            "type": "function"
        },
        {
            "constant": false,
            "inputs": [
                {
                    "name": "_name",
                    "type": "string"
                },
                {
                    "name": "_phone",
                    "type": "string"
                }
            ],
            "name": "registerAsVoter",
            "outputs": [],
            "payable": false,
            "stateMutability": "nonpayable",
            "type": "function"
        },
        {
            "inputs": [],
            "payable": false,
            "stateMutability": "nonpayable",
            "type": "constructor"
        }
    ],
    "bytecode": "608060405234801561001057600080fd5b5060008054600160a060020a0319163317815560018190556002556003805461ffff19169055611208806100456000396000f3006080604052600436106101115763ffffffff7c01000000000000000000000000000000000000000000000000000000006000350416630121b93f81146101165780630b93400e146101305780630e2354cf14610157578063253e74e2146101e157806326541b561461033257806348343175146103c9578063506b8e0a146103de5780635938750d1461040457806359f78468146105315780636247e5321461054657806364d198a11461064a5780636e9960c31461065f578063831318f1146106905780639f05a36d146106a5578063be081b6f146106ce578063c5292c67146106e3578063da58c7d9146106f8578063e173730c14610710578063f851a44014610725578063fee0d19a1461073a575b600080fd5b34801561012257600080fd5b5061012e6004356107d1565b005b34801561013c57600080fd5b5061014561087b565b60408051918252519081900360200190f35b34801561016357600080fd5b5061016c610882565b6040805160208082528351818301528351919283929083019185019080838360005b838110156101a657818101518382015260200161018e565b50505050905090810190601f1680156101d35780820380516001836020036101000a031916815260200191505b509250505060405180910390f35b3480156101ed57600080fd5b506040805160206004803580820135601f810184900484028501840190955284845261012e94369492936024939284019190819084018382808284375050604080516020601f89358b018035918201839004830284018301909452808352979a99988101979196509182019450925082915084018382808284375050604080516020601f89358b018035918201839004830284018301909452808352979a99988101979196509182019450925082915084018382808284375050604080516020601f89358b018035918201839004830284018301909452808352979a99988101979196509182019450925082915084018382808284375050604080516020601f89358b018035918201839004830284018301909452808352979a9998810197919650918201945092508291508401838280828437509497506109189650505050505050565b34801561033e57600080fd5b506040805160206004803580820135601f810184900484028501840190955284845261012e94369492936024939284019190819084018382808284375050604080516020601f89358b018035918201839004830284018301909452808352979a9998810197919650918201945092508291508401838280828437509497506109f99650505050505050565b3480156103d557600080fd5b5061016c610aa0565b3480156103ea57600080fd5b5061012e6004351515600160a060020a0360243516610b01565b34801561041057600080fd5b50610425600160a060020a0360043516610b43565b60408051600160a060020a03881681528415156060820152831515608082015282151560a082015260c060208083018281528951928401929092528851929391929184019160e08501918a019080838360005b83811015610490578181015183820152602001610478565b50505050905090810190601f1680156104bd5780820380516001836020036101000a031916815260200191505b50838103825287518152875160209182019189019080838360005b838110156104f05781810151838201526020016104d8565b50505050905090810190601f16801561051d5780820380516001836020036101000a031916815260200191505b509850505050505050505060405180910390f35b34801561053d57600080fd5b5061012e610ca5565b34801561055257600080fd5b5061055e600435610cd3565b604051808581526020018060200180602001848152602001838103835286818151815260200191508051906020019080838360005b838110156105ab578181015183820152602001610593565b50505050905090810190601f1680156105d85780820380516001836020036101000a031916815260200191505b50838103825285518152855160209182019187019080838360005b8381101561060b5781810151838201526020016105f3565b50505050905090810190601f1680156106385780820380516001836020036101000a031916815260200191505b50965050505050505060405180910390f35b34801561065657600080fd5b50610145610e12565b34801561066b57600080fd5b50610674610e18565b60408051600160a060020a039092168252519081900360200190f35b34801561069c57600080fd5b5061016c610e27565b3480156106b157600080fd5b506106ba610e88565b604080519115158252519081900360200190f35b3480156106da57600080fd5b5061016c610e96565b3480156106ef57600080fd5b506106ba610ef7565b34801561070457600080fd5b50610674600435610f00565b34801561071c57600080fd5b5061016c610f28565b34801561073157600080fd5b50610674610f89565b34801561074657600080fd5b506040805160206004803580820135601f810184900484028501840190955284845261012e94369492936024939284019190819084018382808284375050604080516020601f89358b018035918201839004830284018301909452808352979a999881019791965091820194509250829150840183828082843750949750610f989650505050505050565b336000908152600b6020526040902060030154610100900460ff16156107f657600080fd5b336000908152600b602052604090206003015460ff16151560011461081a57600080fd5b60035460ff16151560011461082e57600080fd5b600354610100900460ff161561084357600080fd5b6000908152600460209081526040808320600390810180546001019055338452600b90925290912001805461ff001916610100179055565b6002545b90565b60058054604080516020601f600260001961010060018816150201909516949094049384018190048102820181019092528281526060939092909183018282801561090e5780601f106108e35761010080835404028352916020019161090e565b820191906000526020600020905b8154815290600101906020018083116108f157829003601f168201915b5050505050905090565b600054600160a060020a0316331461092f57600080fd5b6040805160a081018252868152602080820187905291810185905260608101849052608081018390528651909160059161096e918391908a01906110e5565b50602082810151805161098792600185019201906110e5565b50604082015180516109a39160028401916020909101906110e5565b50606082015180516109bf9160038401916020909101906110e5565b50608082015180516109db9160048401916020909101906110e5565b50506003805461ff001960ff19909116600117169055505050505050565b610a01611163565b600054600160a060020a03163314610a1857600080fd5b506040805160808101825260018054808352602080840187815284860187905260006060860181905292835260048252949091208351815593518051939485949093610a69939085019201906110e5565b5060408201518051610a859160028401916020909101906110e5565b50606091909101516003909101555050600180548101905550565b60098054604080516020601f600260001961010060018816150201909516949094049384018190048102820181019092528281526060939092909183018282801561090e5780601f106108e35761010080835404028352916020019161090e565b600054600160a060020a03163314610b1857600080fd5b600160a060020a03166000908152600b60205260409020600301805460ff1916911515919091179055565b600b602090815260009182526040918290208054600180830180548651600261010094831615949094026000190190911692909204601f8101869004860283018601909652858252600160a060020a03909216949293909290830182828015610bed5780601f10610bc257610100808354040283529160200191610bed565b820191906000526020600020905b815481529060010190602001808311610bd057829003601f168201915b50505060028085018054604080516020601f6000196101006001871615020190941695909504928301859004850281018501909152818152959695945090925090830182828015610c7f5780601f10610c5457610100808354040283529160200191610c7f565b820191906000526020600020905b815481529060010190602001808311610c6257829003601f168201915b5050506003909301549192505060ff808216916101008104821691620100009091041686565b600054600160a060020a03163314610cbc57600080fd5b6003805460ff1961ff001990911661010017169055565b6004602090815260009182526040918290208054600180830180548651600293821615610100026000190190911692909204601f810186900486028301860190965285825291949293909290830182828015610d705780601f10610d4557610100808354040283529160200191610d70565b820191906000526020600020905b815481529060010190602001808311610d5357829003601f168201915b50505060028085018054604080516020601f6000196101006001871615020190941695909504928301859004850281018501909152818152959695945090925090830182828015610e025780601f10610dd757610100808354040283529160200191610e02565b820191906000526020600020905b815481529060010190602001808311610de557829003601f168201915b5050505050908060030154905084565b60015490565b600054600160a060020a031690565b60068054604080516020601f600260001961010060018816150201909516949094049384018190048102820181019092528281526060939092909183018282801561090e5780601f106108e35761010080835404028352916020019161090e565b600354610100900460ff1690565b60078054604080516020601f600260001961010060018816150201909516949094049384018190048102820181019092528281526060939092909183018282801561090e5780601f106108e35761010080835404028352916020019161090e565b60035460ff1690565b600a805482908110610f0e57fe5b600091825260209091200154600160a060020a0316905081565b60088054604080516020601f600260001961010060018816150201909516949094049384018190048102820181019092528281526060939092909183018282801561090e5780601f106108e35761010080835404028352916020019161090e565b600054600160a060020a031681565b610fa061118c565b506040805160c08101825233808252602080830186815283850186905260006060850181905260808501819052600160a08601819052938152600b8352949094208351815473ffffffffffffffffffffffffffffffffffffffff1916600160a060020a0390911617815593518051939485949093611023939085019201906110e5565b506040820151805161103f9160028401916020909101906110e5565b50606082015160039091018054608084015160a0909401511515620100000262ff0000199415156101000261ff001994151560ff19909316929092179390931617929092161790555050600a8054600181810183556000929092527fc65a7bb8d6351c1cf70c95a316cc6a92839c986682d98bc35f958f4883f9d2a801805473ffffffffffffffffffffffffffffffffffffffff19163317905560028054909101905550565b828054600181600116156101000203166002900490600052602060002090601f016020900481019282601f1061112657805160ff1916838001178555611153565b82800160010185558215611153579182015b82811115611153578251825591602001919060010190611138565b5061115f9291506111c2565b5090565b608060405190810160405280600081526020016060815260200160608152602001600081525090565b6040805160c08101825260008082526060602083018190529282018390529181018290526080810182905260a081019190915290565b61087f91905b8082111561115f57600081556001016111c85600a165627a7a72305820c4197f86c014dfeb9e6d1c9a7bc34a0e2251ee985b8224dde0122a00cce6169f0029",
    "sourcePath": "c:/Users/aravi/Downloads/lottery-boilerplate/lottery/contracts/Election.sol",
    "compiler": {
        "name": "solc",
        "version": "0.4.26+commit.4563c3fc"
    },
    "functionHashes": {
        "addCandidate(string,string)": "26541b56",
        "admin()": "f851a440",
        "candidateDetails(uint256)": "6247e532",
        "endElection()": "59f78468",
        "getAdmin()": "6e9960c3",
        "getAdminEmail()": "831318f1",
        "getAdminName()": "0e2354cf",
        "getAdminTitle()": "be081b6f",
        "getElectionTitle()": "e173730c",
        "getEnd()": "9f05a36d",
        "getOrganizationTitle()": "48343175",
        "getStart()": "c5292c67",
        "getTotalCandidate()": "64d198a1",
        "getTotalVoter()": "0b93400e",
        "registerAsVoter(string,string)": "fee0d19a",
        "setElectionDetails(string,string,string,string,string)": "253e74e2",
        "verifyVoter(bool,address)": "506b8e0a",
        "vote(uint256)": "0121b93f",
        "voterDetails(address)": "5938750d",
        "voters(uint256)": "da58c7d9"
    },
    "gasEstimates": {
        "creation": {
            "codeDepositCost": "923200",
            "executionCost": "51484",
            "totalCost": "974684"
        },
        "external": {
            "addCandidate(string,string)": "infinite",
            "admin()": "933",
            "candidateDetails(uint256)": "infinite",
            "endElection()": "20842",
            "getAdmin()": "779",
            "getAdminEmail()": "infinite",
            "getAdminName()": "infinite",
            "getAdminTitle()": "infinite",
            "getElectionTitle()": "infinite",
            "getEnd()": "693",
            "getOrganizationTitle()": "infinite",
            "getStart()": "726",
            "getTotalCandidate()": "604",
            "getTotalVoter()": "407",
            "registerAsVoter(string,string)": "infinite",
            "setElectionDetails(string,string,string,string,string)": "infinite",
            "verifyVoter(bool,address)": "21038",
            "vote(uint256)": "41822",
            "voterDetails(address)": "infinite",
            "voters(uint256)": "1189"
        }
    }
}