{
    "contractName": "Lottery",
    "abi": [
        {
            "constant": true,
            "inputs": [],
            "name": "manager",
            "outputs": [
                {
                    "name": "",
                    "type": "address"
                }
            ],
            "payable": false,
            "stateMutability": "view",
            "type": "function"
        },
        {
            "constant": false,
            "inputs": [],
            "name": "pickWinner",
            "outputs": [],
            "payable": false,
            "stateMutability": "nonpayable",
            "type": "function"
        },
        {
            "constant": true,
            "inputs": [],
            "name": "getPlayers",
            "outputs": [
                {
                    "name": "",
                    "type": "address[]"
                }
            ],
            "payable": false,
            "stateMutability": "view",
            "type": "function"
        },
        {
            "constant": true,
            "inputs": [],
            "name": "winner",
            "outputs": [
                {
                    "name": "",
                    "type": "address"
                }
            ],
            "payable": false,
            "stateMutability": "view",
            "type": "function"
        },
        {
            "constant": false,
            "inputs": [],
            "name": "enter",
            "outputs": [],
            "payable": true,
            "stateMutability": "payable",
            "type": "function"
        },
        {
            "constant": true,
            "inputs": [
                {
                    "name": "",
                    "type": "uint256"
                }
            ],
            "name": "players",
            "outputs": [
                {
                    "name": "",
                    "type": "address"
                }
            ],
            "payable": false,
            "stateMutability": "view",
            "type": "function"
        },
        {
            "constant": true,
            "inputs": [],
            "name": "lastWinner",
            "outputs": [
                {
                    "name": "",
                    "type": "address"
                }
            ],
            "payable": false,
            "stateMutability": "view",
            "type": "function"
        },
        {
            "inputs": [],
            "payable": false,
            "stateMutability": "nonpayable",
            "type": "constructor"
        }
    ],
    "bytecode": "608060405234801561001057600080fd5b5060008054600160a060020a031916331790556104b4806100326000396000f3006080604052600436106100825763ffffffff7c0100000000000000000000000000000000000000000000000000000000600035041663481c6a7581146100875780635d495aea146100b85780638b5b9ccc146100cf578063dfbf53ae14610134578063e97dcb6214610149578063f71d96cb14610151578063fe18818414610169575b600080fd5b34801561009357600080fd5b5061009c61017e565b60408051600160a060020a039092168252519081900360200190f35b3480156100c457600080fd5b506100cd61018d565b005b3480156100db57600080fd5b506100e4610277565b60408051602080825283518183015283519192839290830191858101910280838360005b83811015610120578181015183820152602001610108565b505050509050019250505060405180910390f35b34801561014057600080fd5b5061009c6102da565b6100cd6102e9565b34801561015d57600080fd5b5061009c60043561034c565b34801561017557600080fd5b5061009c610374565b600054600160a060020a031681565b60008054600160a060020a031633146101a557600080fd5b6001546101b0610383565b8115156101b957fe5b0690506001818154811015156101cb57fe5b6000918252602082200154604051600160a060020a0390911691303180156108fc02929091818181858888f1935050505015801561020d573d6000803e3d6000fd5b50600180548290811061021c57fe5b6000918252602080832091909101546002805473ffffffffffffffffffffffffffffffffffffffff1916600160a060020a0390921691909117905560408051928352908201908190529051610273916001916103e5565b5050565b606060018054806020026020016040519081016040528092919081815260200182805480156102cf57602002820191906000526020600020905b8154600160a060020a031681526001909101906020018083116102b1575b505050505090505b90565b600254600160a060020a031690565b662386f26fc1000034116102fc57600080fd5b6001805480820182556000919091527fb10e2d527612073b26eecdfd717e6a320cf44b4afac2b0732d9fcbe2b7fa0cf601805473ffffffffffffffffffffffffffffffffffffffff191633179055565b600180548290811061035a57fe5b600091825260209091200154600160a060020a0316905081565b600254600160a060020a031681565b6000444260016040518084815260200183815260200182805480156103d157602002820191906000526020600020905b8154600160a060020a031681526001909101906020018083116103b3575b505060405190819003902094505050505090565b828054828255906000526020600020908101928215610447579160200282015b82811115610447578251825473ffffffffffffffffffffffffffffffffffffffff1916600160a060020a03909116178255602090920191600190910190610405565b50610453929150610457565b5090565b6102d791905b8082111561045357805473ffffffffffffffffffffffffffffffffffffffff1916815560010161045d5600a165627a7a72305820bf0bfba1818e762e3a7fe6cfd819e72d8e2a74e78bc3ebce407b2a52e77174480029",
    "sourcePath": "c:/Users/aravi/Downloads/lottery-boilerplate/lottery/contracts/Lottery.sol",
    "compiler": {
        "name": "solc",
        "version": "0.4.26+commit.4563c3fc"
    },
    "functionHashes": {
        "enter()": "e97dcb62",
        "getPlayers()": "8b5b9ccc",
        "lastWinner()": "fe188184",
        "manager()": "481c6a75",
        "pickWinner()": "5d495aea",
        "players(uint256)": "f71d96cb",
        "winner()": "dfbf53ae"
    },
    "gasEstimates": {
        "creation": {
            "codeDepositCost": "240800",
            "executionCost": "20573",
            "totalCost": "261373"
        },
        "external": {
            "enter()": "40675",
            "getPlayers()": "infinite",
            "lastWinner()": "669",
            "manager()": "537",
            "pickWinner()": "infinite",
            "players(uint256)": "947",
            "winner()": "603"
        },
        "internal": {
            "random()": "infinite"
        }
    }
}